S31508000000785700209D010008BD070008B5070008BD
S31508000010B9070008B10700086D23000800000000B2
S31508000020000000000000000000000000AF0100080A
S31508000030B101000800000000B3010008C11A000859
S31508000040B7010008B7010008B7010008B7010008A2
S31508000050B7010008B7010008B7010008B701000892
S31508000060B7010008B7010008B7010008B701000882
S31508000070B7010008B7010008B7010008B701000872
S31508000080B7010008B7010008B7010008B701000862
S31508000090B7010008B7010008B7010008B701000852
S315080000A0B7010008B7010008B7010008B701000842
S315080000B0B7010008B7010008B7010008B701000832
S315080000C0B7010008B7010008B7010008B701000822
S315080000D0B7010008B7010008B7010008B701000812
S315080000E0B7010008B7010008B7010008B701000802
S315080000F0B7010008B7010008B7010008B7010008F2
S31508000100B701000869150008B7010008B70100081B
S31508000110B7010008B7010008B7010008B7010008D1
S31508000120B7010008B7010008B7010008B7010008C1
S31508000130B7010008B7010008B7010008B7010008B1
S31508000140B7010008B7010008B7010008C11B00087D
S31508000150B7010008B7010008B7010008B701000891
S31508000160B7010008B7010008B7010008B701000881
S31508000170B7010008B7010008B70100080000000031
S31508000180B7010008B7010008DFF80CD000F052FAF2
S31508000190004800472D6C000878570020064880471D
S315080001A006480047FEE7FEE7FEE7FEE7FEE7FEE74E
S315080001B0FEE7FEE7FEE7FEE7C51A00088901000824
S315080001C040EA01039B0703D009E008C9121F08C0CB
S315080001D0042AFAD203E011F8013B00F8013B521E4B
S315080001E0F9D27047D2B201E000F8012B491EFBD2C2
S315080001F070470022F6E710B513460A460446194624
S31508000200FFF7F0FF204610BDCAB2401E10F8011FC6
S315080002108A4202D00029F9D10020704730B5044639
S315080002200020034600E05B1C934203D2E05CCD5CF1
S31508000230401BF8D030BD30B50B46014600202022C1
S31508000240012409E021FA02F59D4205D303FA02F5D5
S31508000250491B04FA02F52844151EA2F10102F1DC35
S3150800026030BD2DE9F05F0546002092469B4688463C
S315080002700646814640241BE0284641464746224614
S3150800028000F0F9F953465A46C01A914110D311465F
S315080002901846224600F0E0F92D1A67EB01084F468A
S315080002A022460120002100F0D7F917EB00094E413C
S315080002B0201EA4F10104DFDC484631462A4643469F
S315080002C0BDE8F09F2DE9FE4F804681EA0300C00F86
S315080002D00C46009021F0004123F00045B8EB0200DF
S315080002E0A94105D24046214690461C460B46024681
S315080002F023F00040104347D0270DC7F30A00C3F385
S315080003000A510290401A019040286BDAC3F3130091
S3150800031040F4801B0098924620B10023D2EB030AD2
S3150800032063EB0B0B01985946C0F14002504600F0AA
S3150800033093F906460D4650465946019A00F0ABF920
S3150800034010EB08006141002487EA115284EAE7733A
S315080003501A4340D0009A62B3019A012A4FEA07521B
S3150800036015DC001B61EB02014FF0004202EA07525E
S31508000370CDE90042001C41F5801132462B4600F0BB
S31508000380ABF903B0BDE8F08F40462146F9E7001BFC
S3150800039061EB0201001C41F5801300185B4120182F
S315080003A0A2F5001747EB030140EAD570B6196D416F
S315080003B011E06D084FEA360645EAC0754FEA07525E
S315080003C0001B61EB0201001C41F5801149084FEA48
S315080003D030000019514132462B4603B0BDE8F04FB4
S315080003E000F06BB90098012240000023D0EB02020E
S315080003F063EBE073009821464FEAE074B8EB00001F
S3150800040061EB0401E9E783F000435BE781F0004113
S3150800041058E72DE9FE4F81EA030404F0004421F071
S31508000420004100944FF0000B23F0004350EA01040A
S315080004305ED052EA03045BD0C3F30A54C1F30A55EB
S315080004402C44A4F2F3340194A0FB0254C1F3130123
S3150800045041F48011C3F3130343F4801301FB0244F0
S3150800046000FB034E840A970A44EA815447EA8357F5
S31508000470A4FB076802958D0A05FB07854FEA932CAE
S3150800048004FB0C542705029D4FEA065847EA16371F
S31508000490B5EB08056EEB070C870E920E47EA811737
S315080004A042EA8312A7FB0201B6EB0B0164EB0004D8
S315080004B02B0D43EA0C335E1844EB1C50DA465146C2
S315080004C0E7FB0201C5F313044FEA0B3343EA14535F
S315080004D04FEA0432019C43EA0603A4F10C04029491
S315080004E0009CCDE900B400F0F7F803B0BDE8F08F42
S315080004F000200146F9E72DE9F04D81EA030404F0EE
S31508000500004B21F0004514464FF0000A23F0004145
S3150800051050EA050220D054EA01021DD0C5F30A5755
S315080005200246C5F31303C1F31300C1F30A5640F498
S31508000530801543F48013A7EB0608101BD64608F26D
S31508000540FD3873EB050002D308F1010801E09218A3
S315080005505B41B8F1000F03DA00200146BDE8F08DD3
S3150800056000204FF48011064684460EE0171B73EBF5
S31508000570050705D3121B63EB050306434CEA010C7A
S3150800058049084FEA300092185B4150EA0107EDD15D
S3150800059052EA030012D082EA040083EA05010843FE
S315080005A005D0101BAB4106D20122002306E000222B
S315080005B04FF0004302E06FF0010253101AEB0600F9
S315080005C04CEB085110EB0A0041EB0B01BDE8F04D6E
S315080005D000F073B8C1F30A52C1F3130140F2FF33B6
S315080005E041F480119A4202DA00200146704740F22F
S315080005F033439A42A2F2334202DC524200F03BB83D
S3150800060000F02AB830B5041E71F1000404DB4FF07F
S315080006100044404264EB0101141E73F1000405DB3B
S315080006201C464FF00043524263EB0403994208BF4D
S31508000630904230BD064C074D06E0E06840F00103E5
S3150800064094E8070098471034AC42F6D3FFF7A0FDAC
S31508000650DCE00008FCE00008202A04DB203A00FA67
S3150800066002F1002070479140C2F1200320FA03F3FB
S31508000670194390407047202A04DB203A21FA02F0F9
S315080006800021704721FA02F3D040C2F120029140BE
S31508000690084319467047202A06DBCB17203A41FA49
S315080006A002F043EAE07306E041FA02F3D040C2F1F1
S315080006B02002914008431946704710B5141E73F17D
S315080006C0000408DA401C41F1000192185B411A4304
S315080006D001D120F0010010BD2DE9F04D92469B4650
S315080006E011B1B1FA81F202E0B0FA80F220329046F6
S315080006F0FFF7B2FF04460F4640EA0A0041EA0B013B
S3150800070053465A46084313D0114653EA010019D0F6
S31508000710C8F140025046FFF7AEFF05460E46504662
S3150800072059464246FFF798FF084305D0012004E0E2
S3150800073020463946BDE8F08D0020054346EAE076B6
S315080007402C4337430A986305E40AA0EB0800002205
S31508000750FD0A44EA47540A3002D500200146E9E773
S31508000760010510196941DDE9084500196941BDE827
S31508000770F04DA2E730B58C1810F8012B12F00F03D4
S3150800078001D110F8013B120906D110F8012B03E03C
S3150800079010F8015B01F8015B5B1EF9D101E001F875
S315080007A0013B521EFBD1A142E6D3002030BD00001A
S315080007B0FFE7FEE7FFE7FEE7FFE7FEE77047000013
S315080007C080B586B0049040F26800C2F20000483056
S315080007D00390002002908DF8070004981F281CD06B
S315080007E0FFE7FFE74DF65A40C0F600000CF056F852
S315080007F04DF68B30C0F600000CF050F84DF67640FA
S31508000800C0F600000CF04AF8FFE74FF4A42000F009
S3150800081019F900208DF817000FE140F26800C2F2BE
S31508000820000081688162C168C162407C01281CDCC5
S31508000830FFE740F26800C2F20000406845F2553111
S31508000840C4F24231884210D1FFE740F26800C2F292
S315080008500000807C012808DBFFE740F26800C2F24E
S315080008600000807C112808DBFFE74FF4A42000F085
S31508000870E9F800208DF81700DFE040F26800C2F2C0
S315080008800000C07C01460091A0B3FFE7009803284A
S3150800089037D0FFE7009812283AD0FFE700981A28C1
S315080008A04BD0FFE700981B2839D0FFE700981E2891
S315080008B03CD0FFE7009823284DD0FFE7009825286D
S315080008C050D0FFE70098282853D0FFE700982A2839
S315080008D05DD0FFE700982F2867D0FFE700985A28D1
S315080008E032D0FFE70098A8284AD0FFE70098AA2840
S315080008F054D05EE003A802A900F00AFD8DF80700AF
S3150800090078E003A802A900F063FC8DF8070071E0FF
S3150800091003A802A900F0AAF88DF807006AE003A860
S3150800092002A900F0A9FC8DF8070063E003A802A954
S3150800093000F0B4F98DF807005CE003A802A900F0FE
S3150800094065F98DF8070055E003A802A900F01CF91F
S315080009508DF807004EE003A802A900F0E9FB8DF820
S31508000960070047E003A802A900F09AFB8DF80700E4
S3150800097040E00021084600F093FA8DF8070039E0B8
S315080009800021084600F00CFB8DF8070032E0002134
S31508000990084600F0DDFC8DF807002BE0002108462C
S315080009A000F05CFD8DF8070024E000208DF80700B4
S315080009B020E04FF4A42000F045F8FFE74DF6684024
S315080009C0C0F600000BF06AFF40F26800C2F20000B1
S315080009D0C17C4DF64140C0F600000BF05FFF4DF6B6
S315080009E07640C0F600000BF059FFFFE700208DF8AF
S315080009F00700FFE7FFE79DF80700C007B0B1FFE76C
S31508000A0040F26800C2F20000007870B9FFE7029869
S31508000A1030B1FFE703989DF808100BF0B5F803E02E
S31508000A2000200BF091F8FFE7FFE7FFE79DF80700C6
S31508000A3000F001008DF81700FFE79DF8170006B0D3
S31508000A4080BD000081B00090BDF8020040F2680148
S31508000A50C2F2000181F833000098000A81F83400D8
S31508000A60009881F8350001B07047000080B590B055
S31508000A700E900D9124228DF833204FF40040ADF8E6
S31508000A8030004FF000700B904FF020300A9048F27B
S31508000A900000C0F6000009904DF2C411C0F600012E
S31508000AA06846FFF78DFB42F63060C3F230100890B7
S31508000AB040F26800C2F20000C06840B9FFE74FF490
S31508000AC0A420FFF7BFFF00208DF83F0058E040F252
S31508000AD06800C2F20000007DC00788B3FFE740F255
S31508000AE06800C2F20000407D58B9FFE706208DF87D
S31508000AF033000E9800689DF833200BA9FFF760FBBA
S31508000B001DE040F26800C2F20000407D80280BD14B
S31508000B10FFE708208DF833000E9800689DF833200B
S31508000B2009A9FFF74DFB09E042F20040C0F20500B3
S31508000B30FFF788FF00208DF83F0021E0FFE717E068
S31508000B4040F26800C2F20000C07D232808DCFFE7F7
S31508000B5040F26800C2F20000C07D8DF83300FFE75E
S31508000B600E9800689DF833206946FFF729FBFFE7D2
S31508000B709DF833000D99086001208DF83F00FFE7C6
S31508000B809DF83F0010B080BD80B58CB00A900991E1
S31508000B901B208DF8230040F26800C2F20000C068EE
S31508000BA040B9FFE74FF4A420FFF74CFF00208DF86B
S31508000BB02F0027E040F26800C2F20000C07E1A2823
S31508000BC008DCFFE740F26800C2F20000C07E8DF83C
S31508000BD02300FFE74DF2E811C0F6000102A80190D4
S31508000BE01B22FFF7EDFA01990A9800689DF8232061
S31508000BF0FFF7E6FA9DF823000999086001208DF8A9
S31508000C002F00FFE79DF82F000CB080BD80B586B099
S31508000C100490039104208DF80B0040F26800C2F29C
S31508000C200000C06840B9FFE74FF4A420FFF70AFFA9
S31508000C3000208DF817002DE040F26800C2F200008F
S31508000C40C07D032808DCFFE740F26800C2F2000016
S31508000C50C07D8DF80B00FFE70320019040F2680085
S31508000C60C2F2000090F83100C00720B1FFE78020EB
S31508000C708DF80600FFE7049800689DF80B2001A987
S31508000C80FFF79EFA9DF80B000399086001208DF87E
S31508000C901700FFE79DF8170006B080BD80B584B041
S31508000CA00290019140F26800C2F20000C06840B1AB
S31508000CB0FFE74FF4A420FFF7C5FE00208DF80F00CC
S31508000CC011E040F26800C2F20000C07D08B9FFE7F3
S31508000CD000E0FFE7029900200860019908600120FA
S31508000CE08DF80F00FFE79DF80F0004B080BD0000E7
S31508000CF080B584B040F26801C2F20001C86BB1F851
S31508000D00401041430020B0EB113F0AD1FFE740F203
S31508000D106801C2F20001C86BB1F84010484301905F
S31508000D2003E04FF480500190FFE70198029040F2EB
S31508000D306801C2F20001886B029A48310AF0D4FEB3
S31508000D4050B1FFE741F20010C0F20400FFF77AFE47
S31508000D5000208DF80F0030E043F20070C2F2000068
S31508000D60007A029A40F26801C2F200010091483105
S31508000D700AF0C8F900980299B0F84020B1FBF2F2DF
S31508000D80816B114481630299B0F84020B1FBF2F2FD
S31508000D90C16B891AC163029AC16A891AC162C06B9A
S31508000DA038B9FFE740F26801C2F200010320087073
S31508000DB0FFE701208DF80F00FFE79DF80F0004B04C
S31508000DC080BD000080B586B004900020039040F2F4
S31508000DD06801C2F20001886B049A48310AF09AFE4B
S31508000DE050B1FFE740F20030C0F20400FFF72AFED8
S31508000DF000208DF817004EE0049940F26800C2F210
S31508000E0000000290B0F84020B1FBF2F2816B114469
S31508000E1081630499B0F84020B1FBF2F2C16B891ADC
S31508000E20C163049AC16A891AC162C06B20B9FFE717
S31508000E3000200AF089FE2AE040F26801C2F20001A9
S31508000E40C86BB1F8401041430020B0EB113F0AD1FE
S31508000E50FFE740F26801C2F20001C86BB1F8401022
S31508000E604843019003E04FF480500190FFE7019852
S31508000E70039043F20070C2F200000078039A40F231
S31508000E806801C2F2000148310AF000F8FFE70120C4
S31508000E908DF81700FFE79DF8170006B080BD000023
S31508000EA080B584B00290019140F26800C2F2000059
S31508000EB0007C0006002807D5FFE740F26800C2F26A
S31508000EC00000C06840B9FFE74FF4A420FFF7BAFD59
S31508000ED000208DF80F005EE040F26801C2F20001C2
S31508000EE0D1F8150000BA8863488B40BAC863886B86
S31508000EF0CA6B496C104488421ED9FFE742F20010BB
S31508000F00C0F20500FFF79EFDFFE74DF65A40C0F612
S31508000F1000000BF0C3FC4DF6A130C0F600000BF044
S31508000F20BDFC4DF67640C0F600000BF0B7FCFFE7B7
S31508000F3000208DF80F002EE040F26802C2F200028F
S31508000F40D068D16BB2F840205143884218D0FFE7E9
S31508000F50FFE74DF65A40C0F600000BF09FFC4DF631
S31508000F60B430C0F600000BF099FC4DF67640C0F69A
S31508000F7000000BF093FCFFE700208DF80F000AE055
S31508000F8040F26801C2F2000102200870FFF7B0FEC5
S31508000F908DF80F00FFE79DF80F0004B080BD000034
S31508000FA080B584B00290019140F26800C2F2000058
S31508000FB0007C0006002807D5FFE740F26800C2F269
S31508000FC00000C06840B9FFE74FF4A420FFF73AFDD8
S31508000FD000208DF80F005FE040F26801C2F20001C0
S31508000FE0D1F8150000BA8863D1F8190000BAC863A9
S31508000FF0886BCA6B496C104488421ED9FFE742F2D7
S315080010000010C0F20500FFF71DFDFFE74DF65A4038
S31508001010C0F600000BF042FC4DF6A130C0F6000009
S315080010200BF03CFC4DF67640C0F600000BF036FCA3
S31508001030FFE700208DF80F002EE040F26802C2F2AA
S315080010400002D068D16BB2F840205143884218D0CC
S31508001050FFE7FFE74DF65A40C0F600000BF01EFC0E
S315080010604DF6B430C0F600000BF018FC4DF676408D
S31508001070C0F600000BF012FCFFE700208DF80F0009
S315080010800AE040F26801C2F2000102200870FFF788
S315080010902FFE8DF80F00FFE79DF80F0004B080BD06
S315080010A080B586B00490039140F26800C2F2000051
S315080010B0C06840B9FFE74FF4A420FFF7C3FC00203F
S315080010C08DF8170030E040F26800C2F20000416C6B
S315080010D00139090E8DF80410416C0139090C8DF897
S315080010E00510416C0139090A8DF80610416C013961
S315080010F08DF8071000218DF808108DF8091090F862
S3150800110041108DF80A10B0F840008DF80B000498CD
S3150800111001680198029A4A600860039908200860E5
S3150800112001208DF81700FFE79DF8170006B080BD6F
S3150800113080B586B00490039140F26800C2F20000C0
S31508001140C06840B9FFE74FF4A420FFF77BFC0020F6
S315080011508DF8170038E000218DF800108DF8011081
S315080011608DF8021008208DF8030040F26800C2F2DC
S31508001170000090F847208DF80420B0F846208DF836
S315080011800520426C120A8DF80620426C8DF807205D
S3150800119002228DF808208DF8091090F841108DF874
S315080011A00A10B0F840008DF80B0004980168009802
S315080011B0019A029B8B604A60086003990C200860BC
S315080011C001208DF81700FFE79DF8170006B080BDCF
S315080011D080B58AB00890079112208DF81B0040F25E
S315080011E06800C2F20000C06840B9FFE74FF4A420C7
S315080011F0FFF728FC00208DF8270038E040F2680049
S31508001200C2F20000C07D112808DCFFE740F2680042
S31508001210C2F20000C07D8DF81B00FFE74DF20321E6
S31508001220C0F600010DF1090001901222FEF7C8FF71
S31508001230019940F26800C2F2000090F833208DF858
S315080012400B2090F834208DF8152090F835008DF88D
S315080012501600089800689DF81B20FEF7B1FF9DF858
S315080012601B000799086001208DF82700FFE79DF805
S3150800127027000AB080BD000080B584B002900191B5
S3150800128040F26800C2F20000C06840B1FFE74FF4C0
S31508001290A420FFF7D7FB00208DF80F0033E040F2BB
S315080012A06800C2F20000C07D00F00300012801D1E9
S315080012B0FFE71FE040F26800C2F20000C07D00F0C0
S315080012C00300022808D1FFE740F26801C2F20001D4
S315080012D0012081F832000CE040F26800C2F20000FA
S315080012E0C07D00F00300032801D1FFE700E0FFE717
S315080012F0FFE7FFE7029900200860019908600120CE
S315080013008DF80F00FFE79DF80F0004B080BD0000C0
S3150800131080B584B00290019140F26800C2F20000E4
S31508001320C06840B1FFE74FF4A420FFF78BFB00200D
S315080013308DF80F0008E002990020086001990860FE
S3150800134001208DF80F00FFE79DF80F0004B080BD5F
S3150800135080B586B0049003910020029040F26800A0
S31508001360C2F20000007C0006002807D4FFE740F21E
S315080013706800C2F20000C06840B9FFE74FF4A42035
S31508001380FFF760FB00208DF8170062E040F2680165
S31508001390C2F200010191D1F8150000BA8863488BA2
S315080013A040BAC863C86BB1F8402050430290886BB6
S315080013B0CA6B496C1044884218D9FFE7FFE74DF617
S315080013C05A40C0F600000BF069FA4DF6A130C0F697
S315080013D000000BF063FA4DF67640C0F600000BF0FD
S315080013E05DFAFFE700208DF8170032E040F268004A
S315080013F0C2F20000C0680299884204D0FFE70020C4
S315080014008DF8170025E040F26801C2F200010120BC
S31508001410087002990020B0EB113F03D1FFE702984C
S31508001420009003E04FF480500090FFE70098029088
S3150800143043F20070C2F200000078029A40F2680196
S31508001440C2F20001483109F021FD01208DF817008C
S31508001450FFE79DF8170006B080BD000080B586B08E
S31508001460049003910020029040F26800C2F2000046
S31508001470007C0006002807D4FFE740F26800C2F2A5
S315080014800000C06840B9FFE74FF4A420FFF7DAFA76
S3150800149000208DF8170063E040F26801C2F20001EF
S315080014A00191D1F8150000BA8863D1F8190000BA7D
S315080014B0C863C86BB1F8402050430290886BCA6B6A
S315080014C0496C1044884218D9FFE7FFE74DF65A40A1
S315080014D0C0F600000BF0E2F94DF6A130C0F60000A8
S315080014E00BF0DCF94DF67640C0F600000BF0D6F9A5
S315080014F0FFE700208DF8170032E040F26800C2F2DC
S315080015000000C0680299884204D0FFE700208DF8E1
S31508001510170025E040F26801C2F2000101200870B8
S3150800152002990020B0EB113F03D1FFE70298009023
S3150800153003E04FF480500090FFE70098029043F2D2
S315080015400070C2F200000078029A40F26801C2F206
S315080015500001483109F09AFC01208DF81700FFE7D1
S315080015609DF8170006B080BD80B507F0E7FA80BD84
S3150800157080B584B003900291ADF806200020C4F22D
S3150800158002001021002205F0A3F9032000F008FA52
S315080015909DF80A0000F004FA9DF8090000F000FA28
S315080015A09DF8080000F0FCF9FFE7BDF80600411EAB
S315080015B0ADF8061048B1FFE7FF2000F0F1F90399EE
S315080015C00870039801300390EFE70020C4F2020088
S315080015D01021012205F07CF904B080BD80B584B0E5
S315080015E003900291ADF8062000208DF805008DF8CD
S315080015F004008DF803008DF802008DF801000298AA
S315080016008DF803009DF80300C0F580708DF8020080
S315080016109DF807008DF80500BDF806008DF8040052
S315080016209DF8030050BBFFE79DF8050038B9FFE7B2
S3150800163003980299BDF8062000F00EF91DE0FFE7B1
S315080016409DF80500411E8DF8051078B1FFE703984F
S3150800165002994FF4807200F0FFF8029800F5807046
S315080016600290039800F580700390E9E703980299C1
S315080016709DF8042000F0F0F8FFE773E09DF80500F8
S3150800168068BBFFE79DF804009DF8021088421EDD3E
S31508001690FFE79DF804009DF80210401A8DF8010036
S315080016A0039802999DF8022000F0D6F89DF80210DA
S315080016B00298084402909DF8021003980844039083
S315080016C0039802999DF8012000F0C6F806E00398F1
S315080016D00299BDF8062000F0BFF8FFE741E09DF843
S315080016E00210BDF80600401AADF806009DF807007E
S315080016F08DF80500BDF806008DF8040003980299D8
S315080017009DF8022000F0A8F89DF8021002980844F7
S3150800171002909DF80210039808440390FFE79DF88D
S315080017200500411E8DF8051078B1FFE70398029968
S315080017304FF4807200F090F8029800F580700290DD
S31508001740039800F580700390E9E79DF8040038B126
S31508001750FFE7039802999DF8042000F07DF8FFE75B
S31508001760FFE7FFE704B080BD80B592B04FF4406054
S31508001770049006F053FC41F20C1006F04FFC0020D2
S31508001780C4F202000690052100912022019205F07C
S3150800179035F8009906984022029205F02FF800992C
S315080017A006988022039205F029F8019B06980221E3
S315080017B005910022099205F03FF9029B05990698C2
S315080017C0099A05F039F9039B05990698099A05F0CF
S315080017D033F9019B059A0698099905F07BF9029B4E
S315080017E0059A0698099905F075F9039B059A0698CE
S315080017F0099905F06FF9049806F010FC069801227D
S31508001800089210230793114605F016F9059A0698CB
S31508001810079B099905F05EF906980799089A05F055
S3150800182057F809980C904FF482710B910D9003218B
S3150800183010914FF400710E91082111910F9043F207
S315080018400000C4F201000A900BA908F057F90A989B
S3150800185008F0B4F812B080BD80B584B00390029148
S31508001860ADF8062000F0ECF80020C4F202001021C2
S31508001870002205F02DF8022000F092F89DF80A00E3
S3150800188000F08EF89DF8090000F08AF89DF8080027
S3150800189000F086F8BDF80600B0F5807F0BDDFFE79F
S315080018A04FF48070ADF806004DF28160C0F6000076
S315080018B00AF0F4FFFFE7FFE7BDF80600411EADF8A2
S315080018C0061040B1FFE70398007800F069F803981E
S315080018D001300390F0E70020C4F202001021012233
S315080018E004F0F6FF00F088F804B080BD80B588B033
S315080018F0002207920692059204920020C4F2020082
S3150800190003901021029104F0E3FF9F2000F048F8AD
S31508001910FF20019000F044F801460198069100F076
S315080019203FF801460198059100F03AF802990246F7
S3150800193003980492012204F0CBFF06980004059947
S3150800194040EA0120049908430790079808B080BD2B
S3150800195080B584B0039000F073F800F04DF80020CD
S31508001960C4F20200029010210191002204F0B0FF97
S31508001970202000F015F89DF80E0000F011F89DF8EB
S315080019800D0000F00DF89DF80C0000F009F801991B
S315080019900298012204F09CFF00F02EF804B080BDE6
S315080019A080B582B08DF80700FFE743F20000C4F265
S315080019B00100022108F08CF808B9FFE7F5E79DF861
S315080019C0071043F20000C4F2010008F009F8FFE727
S315080019D043F20000C4F20100012108F079F808B9C1
S315080019E0FFE7F5E743F20000C4F2010007F0F0FF55
S315080019F0C0B202B080BD000080B582B000228DF86A
S31508001A0007200020C4F20200102104F061FF05201F
S31508001A10FFF7C6FFFFE7FF20FFF7C2FF8DF80700B5
S31508001A20FFE79DF80700C0070028F4D1FFE700206C
S31508001A30C4F202001021012204F04AFF02B080BD60
S31508001A4080B582B00020C4F20200019010210091F6
S31508001A50002204F03DFF0620FFF7A2FF0099019837
S31508001A60012204F035FF02B080BD000080B582B0C7
S31508001A70009000980138B0F1807F03D3FFE701207A
S31508001A80019019E0009801384EF21401CEF20001D7
S31508001A9008604FF0FF300F2100F06AFC4EF2180183
S31508001AA0CEF20001002008604EF21002CEF20002CB
S31508001AB0072111600190FFE7019802B080BD000080
S31508001AC07047000080B582B04EF68851CEF200010C
S31508001AD0086840F47000086043F60001C4F2020189
S31508001AE0086840F001000860FFE743F60000C4F20A
S31508001AF0020000688007002801D4FFE7F5E7FFE742
S31508001B0043F60801C4F20201086840F08000086044
S31508001B1000200190FFE701984F2805D8FFE7FFE767
S31508001B20019801300190F6E743F60801C4F2020174
S31508001B30086840F09000086000200190FFE70198CF
S31508001B404F2805D8FFE7FFE7019801300190F6E72F
S31508001B50FFE743F60801C4F20201086820F0030013
S31508001B60086043F60002C4F2020210684FF6FF73DB
S31508001B70CFF6F66318401060106820F480201060D5
S31508001B8000200860FFE743F60800C4F20200006878
S31508001B90012008B9FFE7F6E743F60401C4F202019B
S31508001BA043F21000C2F20040086043F60C01C4F28A
S31508001BB002010020086008F09DF902B080BD00000F
S31508001BC080B58EB002F0DCFD0D901420C5F2000041
S31508001BD00068C007002840F0C683FFE70D9808B9DB
S31508001BE0FFE7C0E39DF83400C006002856D5FFE796
S31508001BF01821C5F20001086820F0100008602020AE
S31508001C00C5F2000000680C900C9800F00F000B90CD
S31508001C100C9800F4F0110220B0EB514F1FD1FFE7EA
S31508001C200C98C0F30A1008900898B8B1FFE70B990A
S31508001C3041F2C020C2F200004830039000EB0110C8
S31508001C404068BDF8201002F0D5FC0398089A0B9955
S31508001C5000EB0111486810444860FFE716E00C984D
S31508001C6000F4F0110620B0EB514F0DD1FFE70C98A8
S31508001C70C0F30A100890BDF8201041F2C020C2F245
S31508001C80000002F0B7FC00E0FFE7FFE71821C5F205
S31508001C900001086840F010000860FFE79DF836006C
S31508001CA00007002840F19D80FFE700200B9002F016
S31508001CB0CDFD0A90FFE70A98002800F09180FFE71B
S31508001CC09DF82800C007002800F08380FFE79DF8EC
S31508001CD02C0002F0A3FD09900B98400140F608314C
S31508001CE0C5F200010858069006980B9A52018850CA
S31508001CF09DF82400C00700285DD0FFE70B98A8BB15
S31508001D00FFE70B9941F2C020C2F2000000EB011078
S31508001D10006D38B9FFE741F2C020C2F2000002F0B8
S31508001D2053FC22E00B9A41F2C020C2F2000000F1F7
S31508001D30480101EB02108068530140F61032C5F2E3
S31508001D400002D2586FF3DF42801A0B9A01EB021297
S31508001D50D0600B9801EB0012002090600B9A01EB03
S31508001D600211C96809F08CFCFFE723E00B9A41F2DF
S31508001D70C020C2F2000000F1480101EB02108068A1
S31508001D80530140F61032C5F20002D2586FF3DF4213
S31508001D90801A0B9A01EB0212D0600B9801EB001225
S31508001DA0002090600B9801EB0011C968C0B209F0D9
S31508001DB067FCFFE7FFE79DF824000007002807D522
S31508001DC0FFE741F2C020C2F2000009F073FBFFE70B
S31508001DD0FFE70A9840080A900B9801300B906AE7CB
S31508001DE0FFE79DF836004007002840F1B080FFE77E
S31508001DF000200B9002F0FEFC0A90FFE70A980028E4
S31508001E0000F0A480FFE79DF82800C007002800F02E
S31508001E109680FFE79DF82C0002F0C2FC09900B980B
S31508001E20400140F60811C5F20001085805900598CA
S31508001E300B9A520188509DF82400C007002872D0DA
S31508001E40FFE70B98002847D1FFE70B9A41F2C0201D
S31508001E50C2F200000290083000EB021189685301B3
S31508001E6040F61012C5F20002D2586FF3DF42891A03
S31508001E700B9A00EB0212D1600B9900EB01120021BC
S31508001E8091600B9900EB0110C168802009F0D0FB26
S31508001E900298C08880B1FFE741F2C020C2F2000074
S31508001EA000780006002807D4FFE741F2C020C2F2F6
S31508001EB0000002F089FB0EE041F2C020C2F20000E9
S31508001EC0C08838B9FFE741F2C020C2F2000002F02C
S31508001ED07BFBFFE7FFE725E00B9A41F2C020C2F241
S31508001EE0000000F1080101EB02108068530140F67A
S31508001EF01012C5F20002D2586FF3DF42801A0B9A0D
S31508001F0001EB0212D0600B9801EB001200209060E2
S31508001F100B9A42F0800001EB0211C968C0B209F0C1
S31508001F2087FBFFE7FFE79DF824000006002805D594
S31508001F30FFE79DF82C0002F055FEFFE7FFE70A9839
S31508001F4040080A900B9801300B9057E7FFE79DF879
S31508001F503500C006002840F1C380FFE71421C5F20A
S31508001F600001086840F48050086040F60401C5F294
S31508001F700001086820F001000860102002F0B0FB9C
S31508001F8002F086FB00208DF81300FFE79DF813008A
S31508001F90032800F38380FFE79DF8130098B9FFE74D
S31508001FA09DF81300420140F60011C5F200014FF0FA
S31508001FB0006088509DF813104A0140F60031C5F2BA
S31508001FC00001885040E09DF81300410140F60010DA
S31508001FD0C5F200004058C00F58B1FFE79DF813003E
S31508001FE0420140F60011C5F200014FF090408850BA
S31508001FF009E09DF81300420140F60011C5F2000100
S3150800200000208850FFE79DF81300410140F6003094
S31508002010C5F200004058C00F58B1FFE79DF81300FD
S31508002020420140F60031C5F200014FF09040885059
S3150800203009E09DF81300420140F60031C5F200019F
S3150800204000208850FFE7FFE79DF81300420140F69D
S315080020501010C5F20000002181509DF813004301BD
S3150800206040F60812C5F200024FF6FF30D0509DF830
S315080020701320530140F61032C5F20002D1509DF8E4
S3150800208013104A0140F60831C5F200018850FFE7EF
S315080020909DF8130001308DF8130077E740F61C0110
S315080020A0C5F20001086840F00110086040F6140106
S315080020B0C5F200010920086040F61001C5F20001CA
S315080020C00120086041F2C020C2F200000190A02160
S315080020D0FEF78FF809F01AFB019802F075FAFFE788
S315080020E09DF83500800600281CD5FFE71421C5F2A7
S315080020F00001086840F40050086040F25C00C2F233
S3150800210000000068009002F015FB0146009802F0F6
S3150800211019FC40F60401C5F20001086840F4807015
S315080021200860FFE79DF836008006002868D5FFE7B7
S3150800213040F61C00C5F2000000680790BDF81E00B6
S31508002140079001200B90FFE70B98032850D8FFE76C
S315080021500B990798C043C840C00760B9FFE70B99B9
S3150800216041F2C020C2F2000000EB011090F84A00CC
S31508002170012801D0FFE737E00B98410140F600300F
S31508002180C5F2000040580004002801D4FFE72BE000
S3150800219040F60800C5F200000068C005002811D501
S315080021A0FFE70B98420140F60031C5F20001885856
S315080021B040F0805088500B984201885820F0005013
S315080021C0885010E00B98420140F60031C5F2000134
S315080021D0885820F0805088500B984201885840F063
S315080021E000508850FFE7FFE70B9801300B90ABE7EC
S315080021F01421C5F20001086840F400100860FFE7E2
S315080022009DF83600C006002867D5FFE740F61C0093
S31508002210C5F2000000680790BDF81E00079001206F
S315080022200B90FFE70B9803284FD8FFE70B99079801
S31508002230C043C840C00758B9FFE70B9941F2C02010
S31508002240C2F2000000EB0110807A012801D0FFE7F6
S3150800225037E00B98410140F60010C5F200004058DF
S315080022600004002801D4FFE72BE040F60800C5F279
S3150800227000000068C005002811D5FFE70B98420149
S3150800228040F60011C5F20001885840F08050885089
S315080022900B984201885820F00050885010E00B989F
S315080022A0420140F60011C5F20001885820F080501E
S315080022B088500B984201885840F000508850FFE734
S315080022C0FFE70B9801300B90ACE71421C5F200012B
S315080022D0086840F480100860FFE79DF8340000079E
S315080022E0002808D5FFE71421C5F20001086840F068
S315080022F008000860FFE79DF835000007002808D5A4
S31508002300FFE71421C5F20001086840F40060086080
S31508002310FFE79DF837000006002808D5FFE71421D7
S31508002320C5F20001086840F000400860FFE79DF824
S3150800233034004007002815D5FFE70420C5F2000041
S3150800234000680C909DF830004007002801D5FFE78B
S3150800235000E0FFE70C9A0421C5F200010868104363
S315080023600860FFE7FFE70EB080BD0000FFE7FEE765
S3150800237082B08DF8070000919DF9070000280AD45D
S31508002380FFE7009800019DF907104EF20042CEF2D1
S31508002390000288540BE0009800019DF8071001F030
S315080023A00F014EF61452CEF200028854FFE702B02F
S315080023B07047000080B54FF4A06005F043F807F0B9
S315080023C09DFD80BD80B584B044F26C70C2F20000F9
S315080023D0019000684FF6FC71C0F60001405844F2BF
S315080023E07471C2F200010291086000F04FFC019876
S315080023F001684FF0FF3000EB91010020C0F60100A4
S3150800240000F024FC0146029844F27072C2F20002FF
S315080024100392116001684DF2A370C0F600000AF03D
S315080024203DFA039801684DF2C170C0F600000AF043
S3150800243035FA0299039800680968884207D0FFE7C9
S315080024404DF66C00C0F600000AF028FA06E04DF2D8
S315080024505270C0F600000AF021FAFFE74DF21E702E
S31508002460C0F600000AF01AFA04B080BD80B59EB026
S3150800247000208DF82B008DF82A000990089042F26A
S31508002480B060C2F2000040F20801C2F20001012267
S3150800249002F0C2FD8DF837009DF8370078B1FFE7E6
S315080024A09DF8371040F20C00C2F2000050F82110D7
S315080024B04DF2F460C0F600000AF0F0F912E14DF6AC
S315080024C02011C0F6000140F20802C2F200020EA86E
S315080024D006900AF0F3F9069941F27050C2F200002C
S315080024E0012202F0EFFD8DF837009DF8370078B12C
S315080024F0FFE79DF8371040F20C00C2F2000050F8D2
S3150800250021104DF2E060C0F600000AF0C7F9E9E0D4
S3150800251042F29851C2F2000102910EA803F05CF94A
S315080025200298016844F26C70C2F2000004900160DF
S3150800253001684DF28B70C0F600000AF0AFF941F25F
S315080025407050C2F2000003901C2102F025FC03988B
S315080025500BA904220CAB02F0C3FF039800210591D6
S3150800256002F01AFC0B98010AC2B24DF26C70C0F662
S3150800257000000AF093F9049905980A68120C8DF878
S315080025802B2009688DF82A108DF82900FFE79DF899
S3150800259029009DF82B1088421EDAFFE79DF82910BE
S315080025A00020C0F60100019000EB01414DF2DF70FA
S315080025B0C0F600000AF072F901989DF8291000EBA0
S315080025C0014003F0EDFB03F05FFBFFE79DF82900F0
S315080025D001308DF82900DAE79DF82A00C0B1FFE737
S315080025E09DF829100020C0F60100009000EB01417B
S315080025F04DF2DF70C0F600000AF050F900989DF819
S31508002600291000EB014003F0CBFB03F03DFBFFE78D
S31508002610FFE741F27050C2F2000043F26471C2F261
S3150800262000014FF480520CAB02F05AFF8DF83700C8
S315080026309DF8370018B9FFE70C9868B9FFE74DF61B
S315080026405A00C0F600000AF029F94DF21E70C0F6CD
S3150800265000000AF023F936E00C9908980844089017
S3150800266009990020C0F6010000EB01300C99C1F36E
S315080026708F0143F26472C2F2000203F00DFD09985D
S31508002680013009909DED080AB8EE400A42F29850CA
S31508002690C2F2000090ED001AB8EE411A80EE010A67
S315080026A08DED070A9DED070A9FED0F1A20EE010A28
S315080026B0BDEEC00A10EE101A4DF2B360C0F6000067
S315080026C00AF0ECF8A5E741F27050C2F2000002F0F9
S315080026D043FB40F20801C2F200010022104602F054
S315080026E09BFCFFE71EB080BD0000C84280B582B0E3
S315080026F001F06AFCFFE740F20000C2F200000AF0AF
S315080027005FFD01460191312804D0FFE70198322880
S3150800271009D015E04DF63700C0F600000AF0BEF8FD
S315080027200AF018F80FE04DF61400C0F600000AF09B
S31508002730B5F8FFF79BFEFFF745FE04F01FFA02E027
S3150800274001F042FCFFE7D6E780B54EF21401CEF25F
S315080027500001002008604EF21801CEF20001086060
S315080027604EF21001CEF20001086005F06BFA002067
S31508002770C4F2020004F0C0F840F20040C4F20200BD
S3150800278004F0BAF840F60000C4F2020004F0B4F807
S3150800279040F60040C4F2020004F0AEF843F200002E
S315080027A0C4F2010007F026F941F20000C4F2010064
S315080027B007F0CAFC432004F09BFD312004F098FD85
S315080027C080BD000080B5002000F002F880BD000042
S315080027D080B58AB08DF827009DF827104DF28C2019
S315080027E0C0F6000030F8110005F018FC9DF8271017
S315080027F04DF25420C0F6000030F8110005F00EFC2A
S315080028009DF827104DF23820C0F6000030F8110068
S3150800281005F004FC9DF827304DF2A420C0F6000010
S31508002820019050F823004DF27C21C0F6000151F8C2
S3150800283023104DF29422C0F60002029252F8232089
S3150800284003F0DCFF9DF827304DF26C20C0F600003F
S31508002850049050F823004DF24421C0F6000151F8C7
S3150800286023104DF25C22C0F60002059252F823208E
S3150800287003F0C4FF019802999DF8272050F822001A
S3150800288051F82230022107910122039204F0D4F86C
S3150800289001980299079A9DF8273050F8230051F8B5
S315080028A023300021069104F015F9039A0498059B34
S315080028B007999DF827C050F82C0053F82C3004F0DF
S315080028C0BBF80498059B0699079A9DF827C050F807
S315080028D02C0053F82C3004F0FDF89DF827104DF223
S315080028E01820C0F60000089050F8210007F02CFCCC
S315080028F008989DF8272050F822004DF22821C0F6A6
S31508002900000151F8221007F05FFB08989DF8271080
S3150800291050F82100042107F0CFFC08989DF82710ED
S3150800292050F82100082107F0DDFC08989DF82710CB
S3150800293050F8210007F098FC9DF8270060B9FFE7DA
S315080029409DF827104DF24020C0F60000405C022199
S31508002950002204F0E1FC41E09DF8270001280CD193
S31508002960FFE79DF827104DF24020C0F60000405CB6
S315080029700221002204F0D0FC2FE09DF8270002284F
S315080029800CD1FFE79DF827104DF24020C0F6000055
S31508002990405C0022114604F0BFFC1DE09DF82700AC
S315080029A003280CD1FFE79DF827104DF24020C0F60A
S315080029B00000405C0121002204F0AEFC0BE09DF80B
S315080029C027104DF24020C0F60000405C022100228C
S315080029D004F0A2FCFFE7FFE7FFE7FFE70AB080BDC8
S315080029E080B586B004900391049900200871049973
S315080029F04FF0FF3008630498039904F0D1FB18B12F
S31508002A00FFE7042005908CE0049800F2322004F0D9
S31508002A10FBF8ADF80800049890F834008DF8070024
S31508002A209DF80700EB280AD0FFE79DF80700E9287C
S31508002A3005D0FFE79DF80700E82868D1FFE7BDF84D
S31508002A4008004AF6552188420ED1FFE704988630D9
S31508002A504DF6C071C0F600010822FDF7DFFB18B974
S31508002A60FFE7002005905CE004983F3004F0CCF8BE
S31508002A70ADF80A00049890F841008DF80700BDF8F3
S31508002A800A00411E084241D1FFE7BDF80A00B0F529
S31508002A90805F3BDBFFE7BDF80A00B0F5805F35DCF9
S31508002AA0FFE79DF8070088B3FFE79DF80700411E7A
S31508002AB008422BD1FFE70498423004F0A5F828B362
S31508002AC0FFE7049890F84400013801281ED8FFE76C
S31508002AD00498453004F098F8C0B1FFE704984730E9
S31508002AE004F092F87F2808DCFFE70498543004F0D5
S31508002AF071F8B0F5803F09D3FFE704984A3004F02F
S31508002B0083F818B1FFE7002005900AE0FFE7BDF853
S31508002B1008104AF655220320914208BF0220059064
S31508002B20FFE7059806B080BD83B001900091009834
S31508002B30023800900098019989690239884203D3BE
S31508002B40FFE70020029007E00198C26A40890099D1
S31508002B5000FB01200290FFE7029803B070470000CF
S31508002B6080B588B00690059105981A3004F04CF89F
S31508002B7018B1FFE70020079065E00598007800F097
S31508002B803F000D2148430D3804900120ADF80A0096
S31508002B9000200390FFE703980C283ED8FFE7059826
S31508002BA0039A4DF23431C0F60001895C084404F0FA
S31508002BB02BF8ADF80800BDF80A00F0B1FFE7049855
S31508002BC0FF2812D8FFE7BDF8080002F02DFF019094
S31508002BD0069804994A1C049230F8110002F024FF62
S31508002BE001460198884203D0FFE7002007902AE0B3
S31508002BF0BDF80800ADF80A000AE0BDF808004FF66F
S31508002C00FF71884203D0FFE7002007901BE0FFE72B
S31508002C10FFE7039801300390BDE705980078400662
S31508002C2000280DD5FFE7BDF80A0048B1FFE706986A
S31508002C30049930F8110018B1FFE70020079002E068
S31508002C4001200790FFE7079808B080BD83B002907F
S31508002C50019100200090FFE70098019988420ED262
S31508002C60FFE70298009950F8210043F20001C4F2E8
S31508002C7002010860FFE7009801300090ECE743F294
S31508002C800000C4F20200006803B0704743F208016E
S31508002C90C4F20201086840F00100086070470000AD
S31508002CA080B588B00690059106980068009005984A
S31508002CB080B9FFE7009800690290029830B1FFE7F3
S31508002CC0029800998969884203D3FFE70120029098
S31508002CD0FFE71EE00698059903F074FB0490049834
S31508002CE0012803D8FFE701200790CBE004980130BC
S31508002CF018B9FFE704980790C4E004980099896911
S31508002D00884203D2FFE704980790BBE00598029033
S31508002D10FFE70098406918B9FFE700200790B1E07F
S31508002D200020039002980599884233D1FFE702985C
S31508002D3001300390039800998969884203D3FFE715
S31508002D4002200390FFE70698039903F03BFB0490E3
S31508002D500498012804D0FFE70498013018B9FFE762
S31508002D60049807908EE0049898B1FFE700980069E8
S31508002D7004900498022809D3FFE704980099896902
S31508002D80884203D2FFE704980290FFE700200390E9
S31508002D90FFE7FFE70398A8BBFFE702980390FFE762
S31508002DA003980130039003980099896988420BD3E8
S31508002DB0FFE70220039003980299884203D9FFE7A8
S31508002DC0002007905EE0FFE70698039903F0FAFAF9
S31508002DD00490049808B9FFE713E00498012804D082
S31508002DE0FFE70498013018B9FFE70498079049E00F
S31508002DF003980299884203D1FFE70020079041E033
S31508002E00CEE7FFE7009803994FF0FF3204F098FBEE
S31508002E108DF807009DF8070058B9FFE7059840B1F7
S31508002E20FFE700980599039A04F08AFB8DF80700D6
S31508002E30FFE79DF80700C8B9FFE7039800990861FE
S31508002E400098406988B1FFE700994869896902399D
S31508002E5088420AD8FFE7009948690138486100990D
S31508002E60487940F001004871FFE708E09DF807102F
S31508002E700120012908BF4FF0FF300390FFE70398B0
S31508002E800790FFE7079808B080BD000080B58EB0B0
S31508002E900C900B910B98006808900C980068C06815
S31508002EA0099000200390FFE708A807F041F807906B
S31508002EB00798013020B9FFE706208DF837001CE295
S31508002EC00798B0F5803F09D3FFE7BDF81E000999BA
S31508002ED0039A531C039321F81200FFE70798ADF8ED
S31508002EE02800BDF8280020280ADBFFE7BDF82800DF
S31508002EF02F2805D0FFE7BDF828005C2801D1FFE799
S31508002F0023E0BDF828007F280EDCFFE7BDF828106F
S31508002F104DF6D070C0F60000FDF776F920B1FFE750
S31508002F2006208DF83700E8E10398FF2804D3FFE769
S31508002F3006208DF83700E0E1BDF828000999039AC4
S31508002F40531C039321F81200AEE7BDF828001F288A
S31508002F5004DCFFE704208DF82A0024E0FFE7089840
S31508002F60017801202F29029008D0FFE708980078F9
S31508002F705C38B0FA80F040090290FFE70298C00773
S31508002F8020B1FFE7089801300890E8E700208DF89F
S31508002F902A00089800781F2804D8FFE704208DF82F
S31508002FA02A00FFE7FFE708980B990860FFE70398F0
S31508002FB0B8B1FFE70998039900EB410030F8020C15
S31508002FC0ADF82800BDF82800202806D0FFE7BDF890
S31508002FD028002E2801D0FFE703E003980138039064
S31508002FE0E5E70999039A002021F81200039820B909
S31508002FF0FFE706208DF837007FE100200490FFE701
S315080030000998049930F81100202805D1FFE7FFE751
S31508003010049801300490F3E7049838B9FFE7099853
S31508003020049930F811002E2807D1FFE79DF82A00E9
S3150800303040F003008DF82A00FFE7FFE70399002018
S31508003040019059B1FFE70998039900EB410030F860
S31508003050020C2E3818BF01200190FFE70198C0071F
S3150800306020B1FFE7039801380390E7E70C994FF082
S315080030702030C1F827004862086200208DF82B002E
S31508003080069008200590FFE7099804994A1C0492BF
S3150800309030F81100ADF82800BDF8280008B9FFE798
S315080030A0D8E0BDF8280020280AD0FFE7BDF8280098
S315080030B02E280CD1FFE704980399884207D0FFE72A
S315080030C09DF82A0040F003008DF82A00DCE70698F0
S315080030D00599884205D2FFE704980399884229D1C1
S315080030E0FFE705980B2807D1FFE79DF82A0040F06F
S315080030F003008DF82A00ADE004980399884207D0AA
S31508003100FFE79DF82A0040F003008DF82A00FFE744
S3150800311004980399884201D9FFE79BE00398049035
S31508003120082006900B2005909DF82B0080008DF84E
S315080031302B00A9E7BDF82800802821DBFFE79DF8CA
S315080031402A0040F002008DF82A00BDF8280040F257
S31508003150B51102F01DFCADF828009DF82800000600
S3150800316000280CD5FFE7BDF8280000F07F014DF2D6
S31508003170B420C0F60000405CADF82800FFE7FFE782
S31508003180BDF82800B0F5807F19DBFFE7069805999A
S315080031900139884209D3FFE79DF82A0040F0030069
S315080031A08DF82A00059806906EE79DF829000C9977
S315080031B0069A11440132069281F8200040E0BDF8D3
S315080031C0280050B1FFE7BDF828104DF6C970C0F6C3
S315080031D00000FDF719F850B1FFE75F20ADF82800A9
S315080031E09DF82A0040F003008DF82A0027E0BDF874
S315080031F0280041280CDBFFE7BDF828005A2807DC21
S31508003200FFE79DF82B0040F002008DF82B00FFE742
S31508003210BDF82800612811DBFFE7BDF828007A28E9
S315080032200CDCFFE79DF82B0040F001008DF82B0021
S31508003230BDF828002038ADF82800FFE7FFE7FFE7CC
S315080032409DF828000C99069A11440132069281F8D5
S31508003250200019E70C9890F82000E52805D1FFE72B
S315080032600C99052081F82000FFE70598082806D163
S31508003270FFE79DF82B0080008DF82B00FFE79DF8EF
S315080032802B0000F00C000C2807D0FFE79DF82B0058
S3150800329000F00300032807D1FFE79DF82A0040F055
S315080032A002008DF82A00FFE79DF82A00800700280B
S315080032B01AD4FFE79DF82B00C00738B1FFE79DF841
S315080032C02A0040F010008DF82A00FFE79DF82B0031
S315080032D04007002807D5FFE79DF82A0040F00800B8
S315080032E08DF82A00FFE7FFE79DF82A000C9981F878
S315080032F02B0000208DF83700FFE79DF837000EB049
S3150800330080BD000082B08DF803009DF8030018B157
S31508003310FFE70020019002E000200190FFE70198F6
S3150800332002B0704782B08DF803009DF8030018B10B
S31508003330FFE70020019002E000200190FFE70198D6
S3150800334002B0704780B586B005900491059800686C
S3150800335001900598002100F0FBFB8DF80F009DF801
S315080033600F0098BBFFE700200290FFE70198059938
S31508003370896903F015FF8DF80F009DF80F0008B155
S31508003380FFE722E00598C0690078E52805D0FFE741
S315080033900598C069007848B9FFE70298013002909D
S315080033A00499884201D1FFE70FE002E0002002906D
S315080033B0FFE70598012100F049F98DF80F00FFE7AE
S315080033C09DF80F000028D1D0FFE7FFE79DF80F0012
S315080033D0042804D1FFE707208DF80F00FFE79DF8C2
S315080033E00F0006B080BD000080B588B00690059134
S315080033F0069806F091FC20B1FFE701208DF81F0022
S315080034003EE006980599FFF78FFB04900498069905
S315080034100863069834304FF48051FCF7EAFE0698A4
S31508003420343001900120029000200390FFE70399B1
S31508003430069842890020914200900ED2FFE706982E
S3150800344040780199049A039B1A44029B00F04CFDAC
S31508003450B0FA80F040090090FFE70098C00730B145
S31508003460FFE7FFE70299039808440390DFE703980C
S3150800347006994989401A18BF01208DF81F00FFE7F1
S315080034809DF81F0008B080BD80B588B006900698E4
S31508003490006804900698002100F05AFB8DF8170082
S315080034A09DF8170028B1FFE79DF817008DF81F0053
S315080034B0C7E0FF208DF80C008DF80D0006994FF037
S315080034C0FF30C862FFE704980699896903F068FE29
S315080034D08DF817009DF8170008B1FFE7ACE00698CD
S315080034E0C06900788DF80F009DF80F0020B9FFE736
S315080034F004208DF817009FE00698C069C07A00F08E
S315080035003F008DF80E00069988719DF80F00E52892
S315080035100BD0FFE79DF80E00000700280DD5FFE742
S315080035209DF80E000F2808D0FFE7FF208DF80D0044
S3150800353006994FF0FF30C86271E09DF80E000F281B
S3150800354044D1FFE7069890F82B00400600283CD4A3
S31508003550FFE79DF80F004006002813D5FFE79DF802
S315080035600F0000F0BF008DF80F009DF80F008DF8D2
S315080035700D0006990869C8620698C069407B8DF8EF
S315080035800C00FFE79DF80F009DF80D10884215D135
S31508003590FFE79DF80C000699C969497B88420DD159
S315080035A0FFE70498C0680699C969FFF7D9FA28B1F0
S315080035B0FFE79DF80D000138029002E0FF20029017
S315080035C0FFE702988DF80D00FFE727E09DF80D004C
S315080035D068B9FFE79DF80C0001900698C06906F0E7
S315080035E019FB01460198884201D1FFE724E00698B5
S315080035F090F82B00C00748B9FFE70699C86920313B
S315080036000B22FCF70BFE08B9FFE715E0FF208DF843
S315080036100D0006994FF0FF30C862FFE7FFE70698EE
S31508003620002100F013F88DF81700FFE79DF8170042
S3150800363000283FF448AFFFE79DF817008DF81F00F4
S31508003640FFE79DF81F0008B080BD000080B586B072
S31508003650049003910498006800900498006920304B
S3150800366002900298B0F5001F04D3FFE704990020E2
S315080036708861FFE70498806920B9FFE704208DF880
S3150800368017008BE0BDF808000005002877D1FFE792
S3150800369004998869013088610498406978B9FFE718
S315080036A0029900980089B0EB511F07D8FFE70499E3
S315080036B00020886104208DF817006FE05EE002990B
S315080036C000984089013810EA113F56D1FFE704985F
S315080036D0416902F077FE01900198012804D8FFE7B6
S315080036E002208DF8170059E00198013020B9FFE74C
S315080036F001208DF8170051E00198009989698842E0
S3150800370031D3FFE7039838B9FFE7049900208861A9
S3150800371004208DF8170041E004984169FFF7C0FAC4
S315080037200190019820B9FFE707208DF8170035E0CA
S315080037300198012804D1FFE702208DF817002DE033
S315080037400198013020B9FFE701208DF8170025E020
S3150800375000980199FFF748FE20B1FFE701208DF890
S3150800376017001BE0FFE70198049948610098019942
S31508003770FFF7DAF904998861FFE7FFE7FFE70298A0
S3150800378004990861009802996FF31F310844343090
S315080037900499C86100208DF81700FFE79DF8170007
S315080037A006B080BD80B588B00790069104208DF8D4
S315080037B01700079800680490FF208DF80D008DF813
S315080037C00C00FFE707988069002800F0A180FFE752
S315080037D004980799896903F0E3FC8DF817009DF8AA
S315080037E0170008B1FFE793E00798C06900788DF8DD
S315080037F00E009DF80E0020B9FFE704208DF817008B
S3150800380086E00798C069C07A00F03F008DF80F007F
S31508003810079988719DF80E00E52811D0FFE79DF8F5
S315080038200E002E280CD0FFE79DF80F0000F0DF00F1
S315080038300838B0FA80F040090699884204D0FFE7B4
S31508003840FF208DF80D0057E09DF80F000F283CD19A
S31508003850FFE79DF80E004006002813D5FFE70798F6
S31508003860C069407B8DF80C009DF80E0000F0BF0083
S315080038708DF80E009DF80E008DF80D000799086961
S31508003880C862FFE79DF80E009DF80D10884215D115
S31508003890FFE79DF80C000799C969497B88420DD155
S315080038A0FFE70498C0680799C96903F0D9FD28B1EC
S315080038B0FFE79DF80D000138029002E0FF20029014
S315080038C0FFE702988DF80D0015E09DF80D0060B928
S315080038D0FFE79DF80C0001900798C06906F09AF971
S315080038E001460198884205D0FFE707994FF0FF3057
S315080038F0C862FFE70CE0FFE707980021FFF7A6FE7E
S315080039008DF817009DF8170008B1FFE700E059E7A2
S315080039109DF8170020B1FFE7079900208861FFE7A7
S315080039209DF8170008B080BD80B590B00E900E982F
S3150800393000680C900E9890F82B0010F0A00F04D099
S31508003940FFE706208DF83F00FDE000200A90FFE71C
S315080039500C98C0680A9930F8110028B1FFE7FFE70C
S315080039600A9801300A90F3E70E9A106A516A926A29
S315080039700892079106909DF82300C007D0B3FFE789
S315080039800E99402081F82B0001200B90FFE70B9839
S31508003990632817D8FFE70E9820300C99CA680B9B46
S315080039A006A902F047FC0E98FFF76EFD8DF8370062
S315080039B09DF8370008B1FFE704E0FFE70B980130F0
S315080039C00B90E4E70B98642804D1FFE707208DF8ED
S315080039D03F00B8E09DF83700042805D0FFE79DF8BA
S315080039E037008DF83F00AEE09DF823000E9981F868
S315080039F02B00FFE79DF82300800700280DD5FFE779
S31508003A000A980C304EF64F41C4F6C461A0FB01017A
S31508003A10012000EB9100049002E001200490FFE7EA
S31508003A20049809900E980999FFF78CFC8DF83700D1
S31508003A309DF8370000284FD1FFE70998013809900B
S31508003A40002849D0FFE70E980169099AA1EB4211AF
S31508003A5000F07EF88DF837009DF83700D8BBFFE7F1
S31508003A600E98203006F0D6F88DF81700FFE70C9868
S31508003A700E99896903F094FB8DF837009DF8370095
S31508003A8008B1FFE726E00C98C0680E99C9699DF849
S31508003A9024209DF8173003F031FE0C990120087197
S31508003AA00E980021FFF7D2FD8DF83700FFE79DF845
S31508003AB037100020039041B9FFE7099801380990AB
S31508003AC0002818BF01200390FFE70398C0070028C5
S31508003AD0CDD1FFE7FFE7FFE79DF8370070BBFFE7AB
S31508003AE00C980E99896903F05BFB8DF837009DF8F1
S31508003AF0370010BBFFE70E98C169019100200290BC
S31508003B00C861886148610861C86088604860086063
S31508003B100E9BD969186A5A6AD3F82730C1F8073054
S31508003B204A6008600E9991F82B0000F01800C969E0
S31508003B3008730C9901200871FFE7FFE79DF8370025
S31508003B408DF83F00FFE79DF83F0010B080BD0000EC
S31508003B5080B586B004900391049800680090039994
S31508003B600020B0EB515F05D1FFE79DF80C00C006B9
S31508003B7020B1FFE702208DF8170072E00398049938
S31508003B800861049880680190019848B9FFE7009891
S31508003B900078032804DBFFE70098806A0190FFE7B6
S31508003BA0019880B9FFE7039900980089B0EB511F87
S31508003BB004D8FFE702208DF8170052E00098806AC3
S31508003BC00499886130E00098408900030290FFE775
S31508003BD003980299884220D3FFE70498019902F0D6
S31508003BE0F1FB01900198013020B9FFE701208DF81B
S31508003BF0170036E00198022806D3FFE701980099D6
S31508003C008969884204D3FFE702208DF8170028E067
S31508003C1002990398401A0390DAE700980199FEF78B
S31508003C2083FF04998861FFE701980499486104981D
S31508003C30806920B9FFE702208DF8170011E0039A82
S31508003C400499886900EB12308861009803996FF32C
S31508003C501F31084434300499C86100208DF81700D4
S31508003C60FFE79DF8170006B080BD000082B08DF80A
S31508003C7006009DF806000146009140B1FFE700984E
S31508003C8001280ED0FFE7009802280ED015E09DF80F
S31508003C90050000F0FE008DF8050000208DF80700ED
S31508003CA00FE000208DF807000BE000208DF80500D6
S31508003CB09DF805008DF8070003E001208DF8070040
S31508003CC0FFE79DF8070002B07047000086B08DF840
S31508003CD016008DF8151004929DF8160001460291FB
S31508003CE040B1FFE70298012832D0FFE70298022880
S31508003CF053D05AE09DF8150001460191012808D0D5
S31508003D00FFE7019802280FD0FFE70198032813D090
S31508003D1016E043F21471C2F20001C86B096CB0FBDD
S31508003D20F1F0049908600BE043F21470C2F2000047
S31508003D30006C0499088003E0049901200860FFE7F5
S31508003D4000208DF80F009DF80F008DF8170030E061
S31508003D509DF8150001460091012808D0FFE7009854
S31508003D60022809D0FFE7009803280AD00DE0049935
S31508003D704FF40070086008E004994FF480500880FA
S31508003D8003E0049901200860FFE700208DF80F0082
S31508003D909DF80F008DF817000BE000208DF80F0036
S31508003DA09DF80F008DF8170003E004208DF8170022
S31508003DB0FFE79DF8170006B07047000080B588B089
S31508003DC08DF81E000691059204931D208DF80600B5
S31508003DD09DF81E000146009140B1FFE700980128B2
S31508003DE037D0FFE70098022843D047E00498022816
S31508003DF00FD3FFE70698059943F21472C2F2000240
S31508003E00126C5143049B92B204F074FF8DF80600BD
S31508003E100DE00698059943F21472C2F20002126C7C
S31508003E20514392B204F0C2F98DF80600FFE79DF8F7
S31508003E3006001D2804D1FFE700208DF8070003E0DF
S31508003E4001208DF80700FFE79DF807008DF81F0091
S31508003E5018E0069805990903049A120392B2FDF729
S31508003E6087FB00208DF807009DF807008DF81F00D6
S31508003E7008E09DF807008DF81F0003E004208DF880
S31508003E801F00FFE79DF81F0008B080BD82B08DF8BF
S31508003E9006009DF806000146009140B1FFE700982C
S31508003EA0012808D0FFE7009802280CD013E000206C
S31508003EB08DF8070013E000208DF805009DF8050031
S31508003EC08DF807000BE000208DF805009DF8050029
S31508003ED08DF8070003E001208DF80700FFE79DF83D
S31508003EE0070002B07047000080B588B08DF81E0044
S31508003EF00691059204931D208DF80E009DF81E006C
S31508003F000146009140B1FFE70098012837D0FFE746
S31508003F100098022847D04EE0049802280FD3FFE7FE
S31508003F200698059943F21472C2F20002126C5143C4
S31508003F30049B92B205F0F8F88DF80E000DE006988D
S31508003F40059943F21472C2F20002126C514392B2FE
S31508003F5004F0C6FA8DF80E00FFE79DF80E001D283E
S31508003F6004D1FFE700208DF80F0003E001208DF84B
S31508003F700F00FFE79DF80F008DF81F001FE005985A
S31508003F800003FDF7E5FC069805990903049A120350
S31508003F9092B2FDF723FB00208DF80F009DF80F0065
S31508003FA08DF81F000BE000208DF80F009DF80F001C
S31508003FB08DF81F0003E004208DF81F00FFE79DF829
S31508003FC01F0008B080BD000080B54DF20C70C0F629
S31508003FD0000008F063FC4DF6A700C0F6000008F0E4
S31508003FE05DFC4DF2F570C0F6000008F057FC80BD88
S31508003FF082B001908DF8031001989DF8031001EB2B
S31508004000410100EBC101086920F00100086102B016
S315080040107047000082B001908DF8031001989DF852
S31508004020031001EB410100EBC101086940F00100F2
S31508004030086102B07047000083B002908DF807103F
S315080040408DF8062002989DF8071001EB410100EB58
S31508004050C10000690090009820F0606000909DF80B
S315080040600610009840EA41600090009802999DF871
S31508004070072002EB420201EBC201086103B0704758
S3150800408082B001908DF8031001989DF8031001EB9A
S31508004090410100EBC101086920F00100086101989F
S315080040A09DF8031001EB410100EBC10100200861F6
S315080040B001999DF8032002EB420201EBC201486117
S315080040C001999DF8032002EB420201EBC2018861C7
S315080040D001999DF8032002EB420201EBC201C86177
S315080040E001999DF8032002EB420201EBC201086226
S315080040F001999DF8032002EB420201EBC2014862D6
S315080041009DF80300032811DCFFE79DF8031001EB77
S315080041104100400001F0020100EB41013D2000FA98
S3150800412001F2019988681043886015E09DF803003C
S3150800413004388DF803009DF8031001EB4100400098
S3150800414001F0020100EB41013D2000FA01F201995C
S31508004150C8681043C860FFE702B0704783B0029092
S315080041608DF8071000929DF80700032811DCFFE779
S3150800417000989DF8072002EB4201490002F002026E
S3150800418001EB420100FA01F202998868104388603F
S3150800419015E09DF8070004388DF8070000989DF88B
S315080041A0072002EB4201490002F0020201EB42013C
S315080041B000FA01F20299C8681043C860FFE703B025
S315080041C07047000084B002908DF8071000929DF8A1
S315080041D00700032818DCFFE70298006800999DF895
S315080041E0073003EB4302520003F0020302EB4302DB
S315080041F09140084204D0FFE701208DF80F0020E027
S3150800420000208DF80F001CE09DF8070004388DF893
S3150800421007000298406800999DF8073003EB4302AF
S31508004220520003F0020302EB43029140084204D015
S31508004230FFE701208DF80F0003E000208DF80F003E
S31508004240FFE79DF80F0004B07047000083B00290A6
S315080042508DF807100092009860B9FFE702989DF85C
S31508004260071001EB410100EBC101086920F02000AD
S3150800427008610BE002989DF8071001EB410100EB7D
S31508004280C101086940F020000861FFE703B07047E4
S3150800429084B003908DF80B1001920198006A039977
S315080042A09DF80B2002EB420201EBC2014A6A104359
S315080042B040F0040048620198006803999DF80B20B5
S315080042C002EB420201EBC20188610198C0680399BA
S315080042D09DF80B2002EB420201EBC201C86101986E
S315080042E0C06A03999DF80B2002EB420201EBC2015A
S315080042F0486103989DF80B1001EB410100EBC100E2
S3150800430000690090009848F23F71CFF61C6108409A
S315080043100090019B5868D3F810C09A69D96940EA99
S315080043200C00D3F830C040EA0C009B6A18431043CF
S315080043300143009808430090009803999DF80B20C4
S3150800434002EB420201EBC20108610198806860B97C
S31508004350FFE703989DF80B1001EB410100EBC10143
S31508004360086940F4007008611DE00198806801281A
S315080043700CD1FFE703989DF80B1001EB410100EB08
S31508004380C101086920F4007008610BE003989DF8E4
S315080043900B1001EB410100EBC101086940F4004034
S315080043A00861FFE7FFE70198406960B9FFE70398EE
S315080043B09DF80B1001EB410100EBC101086940F4BF
S315080043C0806008610BE003989DF80B1001EB410132
S315080043D000EBC101086920F480600861FFE70198D5
S315080043E0406A60B9FFE703989DF80B1001EB41019D
S315080043F000EBC101086940F4807008610BE003987E
S315080044009DF80B1001EB410100EBC101086920F48E
S3150800441080700861FFE704B07047000080B594B06B
S315080044201390129146F20040C4F202000390032151
S31508004430049101220192FFF791FE03980499042240
S315080044400292FFF78BFE039804990822FFF786FE6F
S31508004450039804991022FFF781FE039804992022F5
S31508004460FFF77CFE03980499FFF7C2FD03980499A9
S31508004470FFF706FE019A0398049942F68043C4F2B0
S3150800448001030593139B089300230F931093079238
S315080044900A934FF4805306934FF4804309934FF4DD
S315080044A0403311934FF400130C934FF400030B930E
S315080044B00D910E9205AAFFF7EBFE019A039804994F
S315080044C0FFF7C4FE029A03980499FFF7B5FD03980F
S315080044D00499FFF79FFD14B080BD000080B594B025
S315080044E01390129146F20040C4F202000390032191
S315080044F0049101220192FFF731FE039804990422E0
S315080045000292FFF72BFE039804990822FFF726FE6E
S31508004510039804991022FFF721FE03980499202294
S31508004520FFF71CFE03980499FFF762FD03980499A8
S31508004530FFF7A6FD019A0398049942F68043C4F250
S3150800454001030593139B089340230F9300231093AD
S3150800455007920A934FF4805306934FF480430993C6
S315080045604FF4403311934FF400130C934FF40003A8
S315080045700B930E920D9105AAFFF78AFE019A0398EE
S315080045800499FFF763FE029A03980499FFF754FD0E
S3150800459003980499FFF73EFD14B080BD80B582B03C
S315080045A00C21C5F20001086840F04000086000F0E0
S315080045B061F901903821C5F20001086840F480309D
S315080045C00860019802B080BD81B0009040F61031B5
S315080045D0C5F2000100200860086840F40020086061
S315080045E0086840F018000860086840F0C040086095
S315080045F001B0704785B00490ADF80E10049802908B
S31508004600BDF80E0003308008009000200190FFE7F7
S315080046100198009988420FD2FFE741F20000C5F2DF
S315080046200000006802990860029804300290FFE7CB
S31508004630019801300190EBE705B0704786B08DF818
S3150800464017000491ADF80E2004980290BDF80E00EC
S3150800465003308008019000200090FFE70098019938
S31508004660884212D2FFE7029800689DF817100A03DD
S3150800467041F20001C5F20001885002980430029008
S31508004680FFE7009801300090E8E706B070470000A1
S3150800469082B0002000901021C5F2000110200860A9
S315080046A0FFE700980130009040F64151C0F203013F
S315080046B0884204D3FFE74FF0FF3001900CE0FFE794
S315080046C01020C5F20000006800F010001028E8D09D
S315080046D0FFE700200190FFE7019802B0704700004D
S315080046E083B00190002000900198800120301021AD
S315080046F0C5F200010860FFE700980130009040F617
S315080047004151C0F20301884204D3FFE74FF0FF305E
S3150800471002900CE0FFE71020C5F20000006800F0E8
S3150800472020002028E8D0FFE700200290FFE7029843
S3150800473003B0704782B040F60800C5F20000006872
S3150800474000F006000090009820B9FFE700208DF8D9
S31508004750070010E00098022804D0FFE70098062812
S3150800476004D1FFE703208DF8070003E00F208DF83A
S315080047700700FFE7FFE79DF8070002B07047000053
S3150800478081B01420C5F20000006800901820C5F218
S3150800479000000168009808400090009801B0704732
S315080047A084B08DF80F0040F61000C5F200000068CE
S315080047B0019040F63400C5F20000006800900098A9
S315080047C09DF80F1001F00701C84000F0010101989B
S315080047D040EAC11001909DF80F00410140F608100B
S315080047E0C5F200004058019908400290029804B0AA
S315080047F07047000081B040F61800C5F20000006856
S31508004800009040F61C00C5F20000016800980840B8
S315080048100090BDF8000001B07047000082B08DF826
S3150800482007009DF80700410140F60830C5F2000070
S315080048304058009040F61400C5F200000168009840
S3150800484008400090009802B07047000081B040F61A
S315080048501800C5F200000068009040F61C00C5F27A
S3150800486000000168009808400090BDF8020001B0F9
S315080048707047000082B000200090FFE700980130E2
S31508004880009040F64151C0F20301884204D3FFE785
S315080048904FF0FF3001902CE0FFE71020C5F2000032
S315080048A00068C00F0028E9D0FFE70020009010211B
S315080048B0C5F20001086840F001000860FFE70098AB
S315080048C00130009040F64151C0F20301884204D3FA
S315080048D0FFE74FF0FF3001900BE0FFE71020C5F22D
S315080048E000000068C0070028E9D1FFE70020019012
S315080048F0FFE7019802B0704781B08DF803000C21DC
S31508004900C5F20001086820F0C04008609DF8030061
S31508004910012808D1FFE70C21C5F20001086840F01C
S31508004920005008600CE09DF8030040B9FFE70C2131
S31508004930C5F20001086840F080400860FFE7FFE71D
S3150800494001B0704783B002908DF807109DF80700F4
S31508004950032840F0B880FFE702984AF6C041C0F243
S31508004960D80188420BD3FFE702984EF2BF11C0F276
S31508004970E401884203D8FFE70F200090A2E00298DE
S315080049804EF2C011C0F2E40188420BD3FFE7029849
S3150800499042F2FF31C0F2F401884203D8FFE70E2045
S315080049A000908EE0029842F20041C0F2F40188427B
S315080049B00BD3FFE7029847F27F31C0F2061188420F
S315080049C003D8FFE70D2000907AE0029847F280317D
S315080049D0C0F2061188420BD3FFE7029844F69F11EE
S315080049E0C0F21A11884203D8FFE70C20009066E04F
S315080049F0029844F6A011C0F21A1188420BD3FFE7B9
S31508004A00029842F6FF41C0F23111884203D8FFE707
S31508004A100B20009052E0029842F60051C0F2311184
S31508004A2088420BD3FFE702984AF23F41C0F24C1185
S31508004A30884203D8FFE70A2000903EE002984AF22F
S31508004A404041C0F24C1188420BD3FFE7029843F26B
S31508004A50FF51C0F26E11884203D8FFE70920009083
S31508004A602AE0029843F20061C0F26E1188420BD325
S31508004A70FFE702984AF61F31C0F2A611884203D80A
S31508004A80FFE70820009016E002984AF62031C0F2A7
S31508004A90A61188420BD3FFE7029844F2FF71C0F2D1
S31508004AA0E811884203D8FFE70720009002E00620B5
S31508004AB00090FFE7FFE7FFE7FFE7FFE7FFE7FFE70E
S31508004AC0FFE7FFE70AE09DF8070018B9FFE70920A6
S31508004AD0009002E009200090FFE7FFE70C21C5F2ED
S31508004AE00001086840F007000860086820F4705064
S31508004AF00860009800F00F02086840EA8220086003
S31508004B0003B0704780B584B08DF80F00ADF80C106F
S31508004B102420C5F20000006801909DF80F0060B9D6
S31508004B20FFE7BDF80C10019840EA01412820C5F2BC
S31508004B30000001600068009039E02820C5F20000F6
S31508004B400168019800EB1140019000208DF80B00D8
S31508004B50FFE79DF80B009DF80F100139884213D224
S31508004B60FFE79DF80B1040F20410C5F2000050F85C
S31508004B702110019800EB11400190FFE79DF80B000A
S31508004B8001308DF80B00E4E7BDF80C10019840EAF7
S31508004B9001419DF80F2040F20010C5F2000040F8D0
S31508004BA022109DF80F1050F821000090FFE7FFE74C
S31508004BB04DF69A60C0F6000007F070FE9DF80F10DB
S31508004BC0BDF80C20009B4DF6A670C0F6000007F055
S31508004BD065FE4DF67640C0F6000007F05FFEFFE77B
S31508004BE004B080BD80B586B08DF817009DF8170013
S31508004BF041F2C021C2F20001083101EB00129068AF
S31508004C00D268801A049004989DF817201201895AD0
S31508004C1088420BD9FFE79DF8171041F2C020C2F26F
S31508004C20000000EB011000890490FFE704980330A8
S31508004C3080080390FFE79DF81700410140F6181019
S31508004C40C5F20000405881B2039A002091420190B3
S31508004C501DD3FFE79DF8171041F2C020C2F20000ED
S31508004C6000EB0110026941690020914201900ED2C1
S31508004C70FFE79DF8171041F2C020C2F2000000EBD2
S31508004C8001100069002818BF01200190FFE701986C
S31508004C90C007002841D0FFE79DF8170041F2C02160
S31508004CA0C2F20001083101EB00129068D268801A3E
S31508004CB0049004989DF817201201895A88420BD946
S31508004CC0FFE79DF8171041F2C020C2F2000000EB82
S31508004CD0011000890490FFE79DF8170041F2C021F2
S31508004CE0C2F200010831009101EB00114968BDF8D4
S31508004CF01020FFF7A3FC0098049B9DF8171000EB03
S31508004D000112516819445160049A9DF8171000EB76
S31508004D100111C8681044C8608DE79DF8171041F264
S31508004D20C020C2F2000000EB0111086949698842F7
S31508004D3010D8FFE79DF8170000F00F010120884002
S31508004D400290029A40F63401C5F2000108689043C1
S31508004D500860FFE706B080BD80B584B0039003986D
S31508004D6000F06CFD8DF80B009DF80B0078B9FFE795
S31508004D70039801A907F0B4FC8DF80B009DF80B0009
S31508004D8020B9FFE7039900200860FFE7FFE79DF8D1
S31508004D900B0004B080BD000080B58AB0089007916A
S31508004DA0089805A907F09CFC8DF81B009DF81B00C8
S31508004DB028B9FFE70898407C8DF81B00FFE79DF8A7
S31508004DC01B0028B1FFE79DF81B008DF827001EE1A0
S31508004DD007980899C96888420AD9FFE70898007CA5
S31508004DE08007002804D4FFE70898C0680790FFE703
S31508004DF00898406901900020029008994861079830
S31508004E00002800F0B480FFE7059840890003039066
S31508004E100198E0B1FFE707980138039AB0FBF2F072
S31508004E2001990139B1FBF2F1884210D3FFE70198E5
S31508004E300138039949420840089948610898416928
S31508004E400798401A079008988069049026E0089801
S31508004E50806804900498E8B9FFE708980021FDF7F0
S31508004E601FFF04900498012806D1FFE7089902203D
S31508004E7048748DF82700CAE00498013030B9FFE776
S31508004E800899012048748DF82700C0E0049808990D
S31508004E908860FFE7049808998861FFE70498002866
S31508004EA064D0FFE7FFE70798039988423FD9FFE7F1
S31508004EB003990798401A0790039A08994869104475
S31508004EC048610898007C800700280CD5FFE70898F9
S31508004ED00499FDF7E5FE0490049818B9FFE7002049
S31508004EE0079024E005E00898049901F06BFA04900D
S31508004EF0FFE70498013030B9FFE7089901204874A4
S31508004F008DF8270083E00498022806D3FFE7049863
S31508004F1005998969884206D3FFE7089902204874EB
S31508004F208DF8270073E0049808998861BBE7079A0B
S31508004F300899486910444861BDF81C000005A0B1ED
S31508004F40FFE705980499FDF7EFFD0290029830B93E
S31508004F50FFE70899022048748DF8270057E007995B
S31508004F60029800EB11300290FFE7FFE7FFE7089889
S31508004F70C1684069884209D9FFE708994869C86045
S31508004F800899087C40F040000874FFE70898808A72
S31508004F900005B8B3FFE702980899C969884231D075
S31508004FA0FFE70898007C0006002817D5FFE7059854
S31508004FB04078089A02F12801D2690123FEF794FF86
S31508004FC030B1FFE70899012048748DF827001EE0E4
S31508004FD00899087C00F07F000874FFE70598407878
S31508004FE008992831029A0123FEF7E8FE30B1FFE757
S31508004FF00899012048748DF8270008E00298089956
S31508005000C861FFE79DF81B008DF82700FFE79DF8AC
S3150800501027000AB080BD000080B588B006900591CB
S315080050208DF8132005980090684601F08FFB0290D2
S315080050300298B0F1FF3F04DCFFE70B208DF81F0054
S315080050403BE0029941F26030C2F2000050F82100BC
S315080050500390039858B1FFE7029A41F26031C2F211
S315080050600001002041F8220003990870FFE706981E
S3150800507078B1FFE7029806994870069900200870EB
S315080050800698029A41F26031C2F2000141F8220004
S31508005090FFE79DF8130020B9FFE700208DF81F00F1
S315080050A00BE005A806A9002201F06CFE8DF80700A2
S315080050B09DF807008DF81F00FFE79DF81F0008B050
S315080050C080BD000080B59AB0189017918DF85B20C6
S315080050D0189820B9FFE709208DF8670092E19DF836
S315080050E05B0000F03F008DF85B009DF85B2017A879
S315080050F009A901F047FE8DF85A009DF85A000028C4
S3150800510040F07381FFE709980A9017990AA800F0FA
S31508005110F5FF8DF85A009DF85A0058B9FFE79DF833
S3150800512053000006002804D5FFE706208DF85A002C
S31508005130FFE7FFE79DF85B0010F01C0F7AD0FFE74A
S315080051409DF85A0090B1FFE79DF85A00042806D149
S31508005150FFE70AA8FEF7E8FB8DF85A00FFE79DF877
S315080051605B0040F008008DF85B0015E09DF82E0006
S3150800517010F0110F04D0FFE707208DF85A000AE057
S315080051809DF85B004007002804D5FFE708208DF846
S315080051905A00FFE7FFE7FFE79DF85A00002848D1C5
S315080051A0FFE79DF85B000007002842D5FFE70020CF
S315080051B0C5F66110059011980E30059904F0F2FCB9
S315080051C011981630059904F0EDFC0998119901F02B
S315080051D0E5FC089011992020C872099811990022B7
S315080051E0029204F0C5FC029911981C3004F0DAFC0E
S315080051F00999012008710898D0B1FFE70998006B52
S31508005200049008990AA8002202F056FF8DF85A0061
S315080052109DF85A0058B9FFE70998049901F0C0FFAC
S315080052208DF85A000898013809990861FFE7FFE7E1
S31508005230FFE71FE09DF85A00D8B9FFE79DF82E0052
S31508005240C006002804D5FFE704208DF85A000FE0B1
S315080052509DF85B008007002809D5FFE79DF82E001A
S31508005260C00720B1FFE707208DF85A00FFE7FFE7E0
S31508005270FFE7FFE79DF85A00A8B9FFE79DF85B002E
S315080052800007002807D5FFE79DF85B0040F04000BF
S315080052908DF85B00FFE70998006B1899086211986A
S315080052A018994862FFE79DF85A00002840F09C804C
S315080052B0FFE70998119901F071FC1899886011980F
S315080052C01C3001F087FC1899C8600998189908607D
S315080052D00998C088189988809DF85B001899087401
S315080052E01899002048741899C8611899486118983F
S315080052F028304FF48051FAF77CFF9DF85B00800652
S31508005300002870D5FFE71898C06800286BD0FFE71B
S315080053101899C86848610998408900030790189841
S31508005320806806901898C0680390FFE79DF85A10A1
S315080053300020019041B9FFE70399079A002091429E
S3150800534088BF01200190FFE70198C007D8B1FFE7A1
S315080053501898069901F036F806900698012804D898
S31508005360FFE702208DF85A00FFE70698013020B9BA
S31508005370FFE701208DF85A00FFE7FFE70799039832
S31508005380401A0390D2E70698189988619DF85A0042
S3150800539040BBFFE7BDF80C00000518B3FFE7099806
S315080053A00699FDF7C1FB0490049820B9FFE702208F
S315080053B08DF85A0015E00498039900EB11301899F6
S315080053C0C86109984078189A02F12801D269012320
S315080053D0FEF7F4FC20B1FFE701208DF85A00FFE73D
S315080053E0FFE7FFE7FFE7FFE7FFE79DF85A0020B171
S315080053F0FFE7189900200860FFE79DF85A008DF826
S315080054006700FFE79DF867001AB080BD80B586B0D3
S3150800541004900391049820B9FFE709208DF8170036
S3150800542059E003A801A9002201F0ACFC8DF80B0095
S315080054309DF80B00002841D1FFE701980499086000
S315080054400498039900F05AFE8DF80B009DF80B009E
S3150800545050BBFFE7049890F82B000006002813D4E9
S31508005460FFE704988079C006002808D5FFE7019869
S315080054700499C96901F092FB0499886003E0052044
S315080054808DF80B00FFE7FFE79DF80B0058B9FFE71B
S315080054900198C0880499888004980021FEF758FB73
S315080054A08DF80B00FFE7FFE79DF80B00042804D1F1
S315080054B0FFE705208DF80B00FFE7FFE79DF80B00D7
S315080054C020B1FFE7049900200860FFE79DF80B006C
S315080054D08DF81700FFE79DF8170006B080BD00009D
S315080054E080B58EB00C900B910A9209930B98009098
S315080054F00999002008600C9807A907F0F1F88DF8BB
S3150800550023009DF8230030B9FFE70C98407C8DF8FE
